{
  "contractName": "LandRegistry",
  "abi": [
    {
      "inputs": [],
      "payable": false,
      "stateMutability": "nonpayable",
      "type": "constructor"
    },
    {
      "constant": true,
      "inputs": [
        {
          "internalType": "address",
          "name": "",
          "type": "address"
        }
      ],
      "name": "mods",
      "outputs": [
        {
          "internalType": "int256",
          "name": "",
          "type": "int256"
        }
      ],
      "payable": false,
      "stateMutability": "view",
      "type": "function"
    },
    {
      "constant": true,
      "inputs": [
        {
          "internalType": "uint256",
          "name": "",
          "type": "uint256"
        }
      ],
      "name": "ownershipChange",
      "outputs": [
        {
          "internalType": "address",
          "name": "",
          "type": "address"
        }
      ],
      "payable": false,
      "stateMutability": "view",
      "type": "function"
    },
    {
      "constant": true,
      "inputs": [
        {
          "internalType": "uint256",
          "name": "",
          "type": "uint256"
        }
      ],
      "name": "properties",
      "outputs": [
        {
          "internalType": "address",
          "name": "currentOwner",
          "type": "address"
        },
        {
          "internalType": "uint256",
          "name": "marketvalue",
          "type": "uint256"
        },
        {
          "internalType": "string",
          "name": "landtype",
          "type": "string"
        },
        {
          "internalType": "string",
          "name": "citytown",
          "type": "string"
        },
        {
          "internalType": "string",
          "name": "kebele",
          "type": "string"
        },
        {
          "internalType": "string",
          "name": "state",
          "type": "string"
        },
        {
          "internalType": "address",
          "name": "registeredBy",
          "type": "address"
        }
      ],
      "payable": false,
      "stateMutability": "view",
      "type": "function"
    },
    {
      "constant": true,
      "inputs": [
        {
          "internalType": "uint256",
          "name": "",
          "type": "uint256"
        }
      ],
      "name": "propertyChange",
      "outputs": [
        {
          "internalType": "address",
          "name": "",
          "type": "address"
        }
      ],
      "payable": false,
      "stateMutability": "view",
      "type": "function"
    },
    {
      "constant": true,
      "inputs": [],
      "name": "superAdmin",
      "outputs": [
        {
          "internalType": "address",
          "name": "",
          "type": "address"
        }
      ],
      "payable": false,
      "stateMutability": "view",
      "type": "function"
    },
    {
      "constant": false,
      "inputs": [
        {
          "internalType": "uint256",
          "name": "_survey",
          "type": "uint256"
        },
        {
          "internalType": "address",
          "name": "_owner",
          "type": "address"
        },
        {
          "internalType": "uint256",
          "name": "_marketvalue",
          "type": "uint256"
        },
        {
          "internalType": "string",
          "name": "_landtype",
          "type": "string"
        },
        {
          "internalType": "string",
          "name": "_citytown",
          "type": "string"
        },
        {
          "internalType": "string",
          "name": "_kebele",
          "type": "string"
        },
        {
          "internalType": "string",
          "name": "_state",
          "type": "string"
        }
      ],
      "name": "createProperty",
      "outputs": [
        {
          "internalType": "bool",
          "name": "",
          "type": "bool"
        }
      ],
      "payable": false,
      "stateMutability": "nonpayable",
      "type": "function"
    },
    {
      "constant": false,
      "inputs": [
        {
          "internalType": "uint256",
          "name": "_survey",
          "type": "uint256"
        },
        {
          "internalType": "address",
          "name": "_newHolder",
          "type": "address"
        }
      ],
      "name": "givePermission",
      "outputs": [
        {
          "internalType": "bool",
          "name": "",
          "type": "bool"
        }
      ],
      "payable": false,
      "stateMutability": "nonpayable",
      "type": "function"
    },
    {
      "constant": false,
      "inputs": [
        {
          "internalType": "uint256",
          "name": "_survey",
          "type": "uint256"
        }
      ],
      "name": "notForSale",
      "outputs": [
        {
          "internalType": "bool",
          "name": "",
          "type": "bool"
        }
      ],
      "payable": false,
      "stateMutability": "nonpayable",
      "type": "function"
    },
    {
      "constant": false,
      "inputs": [
        {
          "internalType": "uint256",
          "name": "_survey",
          "type": "uint256"
        },
        {
          "internalType": "address",
          "name": "_owner",
          "type": "address"
        }
      ],
      "name": "changeOwnership",
      "outputs": [
        {
          "internalType": "bool",
          "name": "",
          "type": "bool"
        }
      ],
      "payable": false,
      "stateMutability": "nonpayable",
      "type": "function"
    },
    {
      "constant": true,
      "inputs": [
        {
          "internalType": "uint256",
          "name": "_survey",
          "type": "uint256"
        }
      ],
      "name": "getPropertyDetails",
      "outputs": [
        {
          "internalType": "string",
          "name": "",
          "type": "string"
        },
        {
          "internalType": "string",
          "name": "",
          "type": "string"
        },
        {
          "internalType": "string",
          "name": "",
          "type": "string"
        },
        {
          "internalType": "string",
          "name": "",
          "type": "string"
        },
        {
          "internalType": "uint256",
          "name": "",
          "type": "uint256"
        }
      ],
      "payable": false,
      "stateMutability": "view",
      "type": "function"
    },
    {
      "constant": false,
      "inputs": [
        {
          "internalType": "address",
          "name": "_newAdmin",
          "type": "address"
        }
      ],
      "name": "addAdmin",
      "outputs": [
        {
          "internalType": "bool",
          "name": "",
          "type": "bool"
        }
      ],
      "payable": false,
      "stateMutability": "nonpayable",
      "type": "function"
    }
  ],
  "bytecode": "0x608060405234801561001057600080fd5b50336000806101000a81548173ffffffffffffffffffffffffffffffffffffffff021916908373ffffffffffffffffffffffffffffffffffffffff1602179055506001600460008060009054906101000a900473ffffffffffffffffffffffffffffffffffffffff1673ffffffffffffffffffffffffffffffffffffffff1673ffffffffffffffffffffffffffffffffffffffff1681526020019081526020016000208190555061186a806100c66000396000f3fe608060405234801561001057600080fd5b50600436106100a95760003560e01c8063416eeea411610071578063416eeea41461066a57806370480275146106d057806377fc8dd31461072c57806389b3887e1461079a578063a7b09b8c14610800578063f7b1080814610858576100a9565b8063126dbe43146100ae57806323857d51146102a057806329575f6a1461030e5780633ca96192146103585780633e7d2f3514610624575b600080fd5b6100da600480360360208110156100c457600080fd5b8101908080359060200190929190505050610ab0565b604051808060200180602001806020018060200186815260200185810385528a818151815260200191508051906020019080838360005b8381101561012c578082015181840152602081019050610111565b50505050905090810190601f1680156101595780820380516001836020036101000a031916815260200191505b50858103845289818151815260200191508051906020019080838360005b83811015610192578082015181840152602081019050610177565b50505050905090810190601f1680156101bf5780820380516001836020036101000a031916815260200191505b50858103835288818151815260200191508051906020019080838360005b838110156101f85780820151818401526020810190506101dd565b50505050905090810190601f1680156102255780820380516001836020036101000a031916815260200191505b50858103825287818151815260200191508051906020019080838360005b8381101561025e578082015181840152602081019050610243565b50505050905090810190601f16801561028b5780820380516001836020036101000a031916815260200191505b50995050505050505050505060405180910390f35b6102cc600480360360208110156102b657600080fd5b8101908080359060200190929190505050610e1a565b604051808273ffffffffffffffffffffffffffffffffffffffff1673ffffffffffffffffffffffffffffffffffffffff16815260200191505060405180910390f35b610316610e4d565b604051808273ffffffffffffffffffffffffffffffffffffffff1673ffffffffffffffffffffffffffffffffffffffff16815260200191505060405180910390f35b61060a600480360360e081101561036e57600080fd5b8101908080359060200190929190803573ffffffffffffffffffffffffffffffffffffffff16906020019092919080359060200190929190803590602001906401000000008111156103bf57600080fd5b8201836020820111156103d157600080fd5b803590602001918460018302840111640100000000831117156103f357600080fd5b91908080601f016020809104026020016040519081016040528093929190818152602001838380828437600081840152601f19601f8201169050808301925050505050505091929192908035906020019064010000000081111561045657600080fd5b82018360208201111561046857600080fd5b8035906020019184600183028401116401000000008311171561048a57600080fd5b91908080601f016020809104026020016040519081016040528093929190818152602001838380828437600081840152601f19601f820116905080830192505050505050509192919290803590602001906401000000008111156104ed57600080fd5b8201836020820111156104ff57600080fd5b8035906020019184600183028401116401000000008311171561052157600080fd5b91908080601f016020809104026020016040519081016040528093929190818152602001838380828437600081840152601f19601f8201169050808301925050505050505091929192908035906020019064010000000081111561058457600080fd5b82018360208201111561059657600080fd5b803590602001918460018302840111640100000000831117156105b857600080fd5b91908080601f016020809104026020016040519081016040528093929190818152602001838380828437600081840152601f19601f820116905080830192505050505050509192919290505050610e72565b604051808215151515815260200191505060405180910390f35b6106506004803603602081101561063a57600080fd5b8101908080359060200190929190505050611050565b604051808215151515815260200191505060405180910390f35b6106b66004803603604081101561068057600080fd5b8101908080359060200190929190803573ffffffffffffffffffffffffffffffffffffffff16906020019092919050505061111e565b604051808215151515815260200191505060405180910390f35b610712600480360360208110156106e657600080fd5b81019080803573ffffffffffffffffffffffffffffffffffffffff1690602001909291905050506111ec565b604051808215151515815260200191505060405180910390f35b6107586004803603602081101561074257600080fd5b81019080803590602001909291905050506112d4565b604051808273ffffffffffffffffffffffffffffffffffffffff1673ffffffffffffffffffffffffffffffffffffffff16815260200191505060405180910390f35b6107e6600480360360408110156107b057600080fd5b8101908080359060200190929190803573ffffffffffffffffffffffffffffffffffffffff169060200190929190505050611307565b604051808215151515815260200191505060405180910390f35b6108426004803603602081101561081657600080fd5b81019080803573ffffffffffffffffffffffffffffffffffffffff169060200190929190505050611496565b6040518082815260200191505060405180910390f35b6108846004803603602081101561086e57600080fd5b81019080803590602001909291905050506114ae565b604051808873ffffffffffffffffffffffffffffffffffffffff1673ffffffffffffffffffffffffffffffffffffffff168152602001878152602001806020018060200180602001806020018673ffffffffffffffffffffffffffffffffffffffff1673ffffffffffffffffffffffffffffffffffffffff16815260200185810385528a818151815260200191508051906020019080838360005b8381101561093a57808201518184015260208101905061091f565b50505050905090810190601f1680156109675780820380516001836020036101000a031916815260200191505b50858103845289818151815260200191508051906020019080838360005b838110156109a0578082015181840152602081019050610985565b50505050905090810190601f1680156109cd5780820380516001836020036101000a031916815260200191505b50858103835288818151815260200191508051906020019080838360005b83811015610a065780820151818401526020810190506109eb565b50505050905090810190601f168015610a335780820380516001836020036101000a031916815260200191505b50858103825287818151815260200191508051906020019080838360005b83811015610a6c578082015181840152602081019050610a51565b50505050905090810190601f168015610a995780820380516001836020036101000a031916815260200191505b509b50505050505050505050505060405180910390f35b6060806060806000853373ffffffffffffffffffffffffffffffffffffffff166001600083815260200190815260200160002060000160009054906101000a900473ffffffffffffffffffffffffffffffffffffffff1673ffffffffffffffffffffffffffffffffffffffff1614610b2757600080fd5b6001600088815260200190815260200160002060020160016000898152602001908152602001600020600301600160008a8152602001908152602001600020600401600160008b8152602001908152602001600020600501600160008c815260200190815260200160002060010154848054600181600116156101000203166002900480601f016020809104026020016040519081016040528092919081815260200182805460018160011615610100020316600290048015610c2b5780601f10610c0057610100808354040283529160200191610c2b565b820191906000526020600020905b815481529060010190602001808311610c0e57829003601f168201915b50505050509450838054600181600116156101000203166002900480601f016020809104026020016040519081016040528092919081815260200182805460018160011615610100020316600290048015610cc75780601f10610c9c57610100808354040283529160200191610cc7565b820191906000526020600020905b815481529060010190602001808311610caa57829003601f168201915b50505050509350828054600181600116156101000203166002900480601f016020809104026020016040519081016040528092919081815260200182805460018160011615610100020316600290048015610d635780601f10610d3857610100808354040283529160200191610d63565b820191906000526020600020905b815481529060010190602001808311610d4657829003601f168201915b50505050509250818054600181600116156101000203166002900480601f016020809104026020016040519081016040528092919081815260200182805460018160011615610100020316600290048015610dff5780601f10610dd457610100808354040283529160200191610dff565b820191906000526020600020905b815481529060010190602001808311610de257829003601f168201915b50505050509150955095509550955095505091939590929450565b60036020528060005260406000206000915054906101000a900473ffffffffffffffffffffffffffffffffffffffff1681565b6000809054906101000a900473ffffffffffffffffffffffffffffffffffffffff1681565b60006002600460003373ffffffffffffffffffffffffffffffffffffffff1673ffffffffffffffffffffffffffffffffffffffff1681526020019081526020016000205414610ec057600080fd5b6040518060e001604052808873ffffffffffffffffffffffffffffffffffffffff1681526020018781526020018681526020018581526020018481526020018381526020013373ffffffffffffffffffffffffffffffffffffffff16815250600160008a815260200190815260200160002060008201518160000160006101000a81548173ffffffffffffffffffffffffffffffffffffffff021916908373ffffffffffffffffffffffffffffffffffffffff160217905550602082015181600101556040820151816002019080519060200190610f9f929190611790565b506060820151816003019080519060200190610fbc929190611790565b506080820151816004019080519060200190610fd9929190611790565b5060a0820151816005019080519060200190610ff6929190611790565b5060c08201518160060160006101000a81548173ffffffffffffffffffffffffffffffffffffffff021916908373ffffffffffffffffffffffffffffffffffffffff16021790555090505060019050979650505050505050565b6000813373ffffffffffffffffffffffffffffffffffffffff166001600083815260200190815260200160002060000160009054906101000a900473ffffffffffffffffffffffffffffffffffffffff1673ffffffffffffffffffffffffffffffffffffffff16146110c157600080fd5b60006002600085815260200190815260200160002060006101000a81548173ffffffffffffffffffffffffffffffffffffffff021916908373ffffffffffffffffffffffffffffffffffffffff1602179055506001915050919050565b6000823373ffffffffffffffffffffffffffffffffffffffff166001600083815260200190815260200160002060000160009054906101000a900473ffffffffffffffffffffffffffffffffffffffff1673ffffffffffffffffffffffffffffffffffffffff161461118f57600080fd5b826002600086815260200190815260200160002060006101000a81548173ffffffffffffffffffffffffffffffffffffffff021916908373ffffffffffffffffffffffffffffffffffffffff160217905550600191505092915050565b60006001600460003373ffffffffffffffffffffffffffffffffffffffff1673ffffffffffffffffffffffffffffffffffffffff168152602001908152602001600020541461123a57600080fd5b6000600460008473ffffffffffffffffffffffffffffffffffffffff1673ffffffffffffffffffffffffffffffffffffffff168152602001908152602001600020541461128657600080fd5b6002600460008473ffffffffffffffffffffffffffffffffffffffff1673ffffffffffffffffffffffffffffffffffffffff1681526020019081526020016000208190555060019050919050565b60026020528060005260406000206000915054906101000a900473ffffffffffffffffffffffffffffffffffffffff1681565b6000823373ffffffffffffffffffffffffffffffffffffffff166002600083815260200190815260200160002060009054906101000a900473ffffffffffffffffffffffffffffffffffffffff1673ffffffffffffffffffffffffffffffffffffffff161461137557600080fd5b8273ffffffffffffffffffffffffffffffffffffffff166001600086815260200190815260200160002060000160009054906101000a900473ffffffffffffffffffffffffffffffffffffffff1673ffffffffffffffffffffffffffffffffffffffff16146113e357600080fd5b336001600086815260200190815260200160002060000160006101000a81548173ffffffffffffffffffffffffffffffffffffffff021916908373ffffffffffffffffffffffffffffffffffffffff16021790555060006002600086815260200190815260200160002060006101000a81548173ffffffffffffffffffffffffffffffffffffffff021916908373ffffffffffffffffffffffffffffffffffffffff160217905550600191505092915050565b60046020528060005260406000206000915090505481565b60016020528060005260406000206000915090508060000160009054906101000a900473ffffffffffffffffffffffffffffffffffffffff1690806001015490806002018054600181600116156101000203166002900480601f0160208091040260200160405190810160405280929190818152602001828054600181600116156101000203166002900480156115865780601f1061155b57610100808354040283529160200191611586565b820191906000526020600020905b81548152906001019060200180831161156957829003601f168201915b505050505090806003018054600181600116156101000203166002900480601f0160208091040260200160405190810160405280929190818152602001828054600181600116156101000203166002900480156116245780601f106115f957610100808354040283529160200191611624565b820191906000526020600020905b81548152906001019060200180831161160757829003601f168201915b505050505090806004018054600181600116156101000203166002900480601f0160208091040260200160405190810160405280929190818152602001828054600181600116156101000203166002900480156116c25780601f10611697576101008083540402835291602001916116c2565b820191906000526020600020905b8154815290600101906020018083116116a557829003601f168201915b505050505090806005018054600181600116156101000203166002900480601f0160208091040260200160405190810160405280929190818152602001828054600181600116156101000203166002900480156117605780601f1061173557610100808354040283529160200191611760565b820191906000526020600020905b81548152906001019060200180831161174357829003601f168201915b5050505050908060060160009054906101000a900473ffffffffffffffffffffffffffffffffffffffff16905087565b828054600181600116156101000203166002900490600052602060002090601f016020900481019282601f106117d157805160ff19168380011785556117ff565b828001600101855582156117ff579182015b828111156117fe5782518255916020019190600101906117e3565b5b50905061180c9190611810565b5090565b61183291905b8082111561182e576000816000905550600101611816565b5090565b9056fea265627a7a723158205dc701124b0d1cb8db2f712c1ccaf1f2ddd6e170175721466e330e3308449d9064736f6c63430005100032",
  "source": "// SPDX-License-Identifier: GPL-3.0\r\npragma solidity 0.5.16;\r\n\r\ncontract LandRegistry {\r\n    address public superAdmin;\r\n    struct Property {\r\n        address currentOwner;\r\n        uint256 marketvalue;\r\n        string landtype;\r\n        string citytown;\r\n        string kebele;\r\n        string state;\r\n        address registeredBy;\r\n    }\r\n\r\n    mapping(uint256 => Property) public properties;\r\n    mapping(uint256 => address) public propertyChange;\r\n    mapping(uint256 => address) public ownershipChange;\r\n    mapping(address => int256) public mods;\r\n\r\n    constructor() public {\r\n        superAdmin = msg.sender;\r\n        mods[superAdmin] = 1;\r\n    }\r\n\r\n    modifier onlyOwner(uint256 _survey) {\r\n        require(properties[_survey].currentOwner == msg.sender);\r\n        _;\r\n    }\r\n\r\n    modifier onlyHolder(uint256 _survey) {\r\n        require(propertyChange[_survey] == msg.sender);\r\n        _;\r\n    }\r\n\r\n    modifier onlyAdmin() {\r\n        require(mods[msg.sender] == 2);\r\n        _;\r\n    }\r\n\r\n    modifier onlySuperAdmin() {\r\n        require(mods[msg.sender] == 1);\r\n        _;\r\n    }\r\n\r\n    function createProperty(\r\n        uint256 _survey,\r\n        address _owner,\r\n        uint256 _marketvalue,\r\n        string memory _landtype,\r\n        string memory _citytown,\r\n        string memory _kebele,\r\n        string memory _state\r\n    ) public onlyAdmin returns (bool) {\r\n        properties[_survey] = Property(\r\n            _owner,\r\n            _marketvalue,\r\n            _landtype,\r\n            _citytown,\r\n            _kebele,\r\n            _state,\r\n            msg.sender\r\n        );\r\n        return true;\r\n    }\r\n\r\n    function givePermission(uint256 _survey, address _newHolder)\r\n        public\r\n        onlyOwner(_survey)\r\n        returns (bool)\r\n    {\r\n        propertyChange[_survey] = _newHolder;\r\n        return true;\r\n    }\r\n\r\n    function notForSale(uint256 _survey)\r\n        public\r\n        onlyOwner(_survey)\r\n        returns (bool)\r\n    {\r\n        propertyChange[_survey] = address(0);\r\n        return true;\r\n    }\r\n\r\n    function changeOwnership(uint256 _survey, address _owner)\r\n        public\r\n        onlyHolder(_survey)\r\n        returns (bool)\r\n    {\r\n        require(properties[_survey].currentOwner == _owner);\r\n        properties[_survey].currentOwner = msg.sender;\r\n        propertyChange[_survey] = address(0);\r\n        return true;\r\n    }\r\n\r\n    function getPropertyDetails(uint256 _survey)\r\n        public\r\n        view\r\n        onlyOwner(_survey)\r\n        returns (\r\n            string memory,\r\n            string memory,\r\n            string memory,\r\n            string memory,\r\n            uint256\r\n        )\r\n    {\r\n        return (\r\n            properties[_survey].landtype,\r\n            properties[_survey].citytown,\r\n            properties[_survey].kebele,\r\n            properties[_survey].state,\r\n            properties[_survey].marketvalue\r\n        );\r\n    }\r\n\r\n    function addAdmin(address _newAdmin) public onlySuperAdmin returns (bool) {\r\n        require(mods[_newAdmin] == 0);\r\n        mods[_newAdmin] = 2;\r\n        return true;\r\n    }\r\n}\r\n",
  "sourcePath": "D:\\zown\\BLandReg\\land-registry\\contracts\\LandRegistry.sol",
  "compiler": {
    "name": "solc",
    "version": "0.5.16+commit.9c3226ce.Emscripten.clang"
  },
  "schemaVersion": "3.4.3",
  "updatedAt": "2021-10-31T07:19:32.499Z",
  "networkType": "ethereum",
  "devdoc": {
    "methods": {}
  },
  "userdoc": {
    "methods": {}
  }
}